:100000000C9434000C9449000C9449000C94490061
:100010000C9449000C9449000C9449000C9449003C
:100020000C9449000C9449000C9449000C9449002C
:100030000C9449000C9449000C9449000C9449001C
:100040000C9449000C9449000C9449000C9449000C
:100050000C9449000C9449000C9449000C944900FC
:100060000C9449000C94490011241FBECFEFD8E036
:10007000DEBFCDBF11E0A0E0B1E0ECECF8E002C0E3
:1000800005900D92A032B107D9F70E94AA000C94F6
:1000900064040C94000082E191E00895E0ECF0E04B
:1000A00095838483108288E9818386E08283089522
:1000B000982F8091C00085FFFCCFE0ECF0E09683A4
:1000C00008958091C00087FFFCCF8091C6000895FD
:1000D000982F8091C00085FFFCCFE0ECF0E0968384
:1000E00080E090E0089580E020E030E040EA189B56
:1000F000FECF942F9A95F1F7189B03C0880F81606B
:1001000001C0880F1899FECF2F5F3F4F283031056F
:1001100071F7089520981899FECF80E491E0019737
:10012000F1F7189BFECF80E491E00197F1F7189961
:10013000FECF0895209A289888EC90E020E931E0DD
:10014000F9013197F1F70197D9F7289A85ED8A954A
:10015000F1F70895EF92FF920F931F93CF93DF93E0
:1001600088EE93E020E931E0F9013197F1F701974A
:10017000D9F70E944B00EC0187E690E00E944E0008
:1001800080E091E0BE010E94870186E0E82E81E0D8
:10019000F82E00E911E00E949A000E948A000E9455
:1001A000730000D000D000D0EDB7FEB73196ADB7E8
:1001B000BEB71296DC93CE931197F382E2828483CA
:1001C00015820E94730188E893E12DB73EB72A5F3C
:1001D0003F4F0FB6F8943EBF0FBE2DBFF8013197C9
:1001E000F1F70197D9F7D7CF209A289880E897E0C0
:1001F0000197F1F7209880EF90E00197F1F7189BB5
:1002000002C081E0089580E996E00197F1F780E06F
:100210000895209A289A8CE49DE120E931E0F901C3
:100220003197F1F70197D9F720980895209A2898E7
:100230008AE08A95F1F7209880E58A95F1F783B1F5
:10024000E8ECF0E03197F1F781700895209A289852
:100250009AE09A95F1F78111289A80EE91E0019742
:10026000F1F720980895EF92FF921F93CF93DF93B9
:1002700010E0C0E0D0E081E0E82EF12C0E941601F1
:10028000882341F0C7010C2E02C0880F991F0A94E1
:10029000E2F7182B2196C830D10581F7812FDF9125
:1002A000CF911F91FF90EF900895FF920F931F93AE
:1002B000CF93DF93F82EC0E0D0E001E010E0C8015A
:1002C0000C2E02C0880F991F0A94E2F78F210E941A
:1002D00026012196C830D10591F7DF91CF911F916A
:1002E0000F91FF900895A0E0B0E0E9E7F1E00C94F1
:1002F0003D049E01275F3F4F8D819E816F817885F0
:10030000A9010E94B0012096E2E00C945904EF92FA
:10031000FF920F931F93CF93DF937C018B01DB013F
:1003200013968C9181FD03C0CFEFDFEF13C0C0E0C7
:10033000D0E00BC0D8011896ED91FC911997B80147
:100340000995892B11F0CFEFDFEFF70181917F0144
:10035000882381F7CE01CDB7DEB7E6E00C945504D3
:10036000ABE0B0E0E6EBF1E00C942D043C012B0196
:100370005A01FC0117821682838181FD03C06FEF51
:100380007FEFC6C19AE0892E1E010894211C311C02
:10039000F3012381F20123FD859123FF81912F0138
:1003A000882309F4B2C1853239F423FD859123FFF6
:1003B00081912F01853229F490E0B3010E94A303BB
:1003C000E7CF982FFF24EE249924FFE1FF15D0F00A
:1003D0009B3269F09C3228F4903259F0933291F4B8
:1003E0000EC09D3249F0903369F441E024C052E0E0
:1003F000F52A84E0F82A28C098E0F92A25C0E0E12F
:10040000FE2A22C0F7FC29C0892F80538A3070F45D
:10041000F6FE05C0989C902C1124980E15C0E89CFF
:10042000E02C1124E80EF0E2FF2A0EC09E3229F4DF
:10043000F6FC6BC140E4F42A07C09C3619F450E87E
:10044000F52A02C0983649F4F20123FD959123FF65
:1004500091912F01992309F0B8CF892F85548330CA
:1004600018F08052833038F444E050E0A40EB51EFA
:100470005FE359830FC0933631F0933779F09335AA
:1004800009F056C020C0F5018081898342E050E028
:10049000A40EB51E610101E010E012C0F501C0809C
:1004A000D180F6FC03C06FEF7FEF02C0692D70E0D2
:1004B00042E050E0A40EB51EC6010E9498038C01D4
:1004C0005FE7F52214C0F501C080D180F6FC03C0BF
:1004D0006FEF7FEF02C0692D70E042E050E0A40EA4
:1004E000B51EC6010E948D038C0150E8F52AF3FE6B
:1004F00007C01AC080E290E0B3010E94A303EA940F
:100500008E2D90E008171907A8F30EC0F601F7FC2E
:100510008591F7FE81916F0190E0B3010E94A303E2
:10052000E110EA94015010400115110579F7EAC075
:10053000943611F0993669F5F7FE08C0F50120816F
:1005400031814281538184E090E00AC0F5018081CD
:1005500091819C01442737FD4095542F82E090E023
:10056000A80EB91E9FE6F92257FF09C05095409585
:10057000309521953F4F4F4F5F4FE0E8FE2ACA016B
:10058000B901A1012AE030E00E94CF03D82ED21891
:1005900040C0953729F41F2D1F7E2AE030E01DC092
:1005A0001F2D197F9F3661F0903720F4983509F0A0
:1005B000ACC00FC0903739F0983709F0A6C004C01E
:1005C00028E030E00AC0106114FD146020E130E042
:1005D00004C014FD166020E132E017FF08C0F501E9
:1005E000608171818281938144E050E008C0F5010F
:1005F00080819181BC0180E090E042E050E0A40E57
:10060000B51EA1010E94CF03D82ED2188FE7F82E75
:10061000F122F6FE0BC05EEFF522D91438F4F4FE99
:1006200007C0F2FC05C08FEEF82202C01D2D01C0EC
:10063000192DF4FE0DC0FE01ED0DF11D80818033FA
:1006400019F499EEF92208C01F5FF2FE05C003C03D
:100650008F2D867809F01F5F0F2DF3FC14C0F0FE7C
:100660000FC01E1510F09D2C0BC09D2C9E0C911AD6
:100670001E2D06C080E290E0B3010E94A3031F5F1D
:100680001E15C0F304C01E1510F4E11A01C0EE24BB
:1006900004FF0FC080E390E0B3010E94A30302FFB8
:1006A0001DC001FD03C088E790E00EC088E590E022
:1006B0000BC0802F867891F001FF02C08BE201C051
:1006C00080E2F7FC8DE290E0B3010E94A30306C034
:1006D00080E390E0B3010E94A3039A94D914C0F37D
:1006E000DA94F101ED0DF11D808190E0B3010E94DB
:1006F000A303DD20A9F706C080E290E0B3010E94C9
:10070000A303EA94EE20C1F743CEF301668177811B
:10071000CB012B96E2E10C944904FC010590615059
:1007200070400110D8F7809590958E0F9F1F089507
:10073000FC016150704001900110D8F780959095B0
:100740008E0F9F1F08950F931F93CF93DF938C01FC
:10075000EB018B8181FF1BC082FF0DC02E813F8189
:100760008C819D812817390764F4E881F981019310
:10077000F983E88306C0E885F985802F0995892BE0
:1007800031F48E819F8101969F838E8302C00FEF8B
:100790001FEFC801DF91CF911F910F910895FA01CA
:1007A000AA27283051F1203181F1E8946F936E7FB0
:1007B0006E5F7F4F8F4F9F4FAF4FB1E03ED0B4E0A1
:1007C0003CD0670F781F891F9A1FA11D680F791FE2
:1007D0008A1F911DA11D6A0F711D811D911DA11DF3
:1007E00020D009F468943F912AE0269F1124301903
:1007F000305D3193DEF6CF010895462F4770405D9E
:100800004193B3E00FD0C9F7F6CF462F4F70405D4C
:100810004A3318F0495D31FD4052419302D0A9F7A7
:10082000EACFB4E0A6959795879577956795BA95A1
:10083000C9F700976105710508959B01AC010A2E67
:1008400006945795479537952795BA95C9F7620F3E
:10085000731F841F951FA01D08952F923F924F92E2
:100860005F926F927F928F929F92AF92BF92CF9240
:10087000DF92EF92FF920F931F93CF93DF93CDB749
:10088000DEB7CA1BDB0B0FB6F894DEBF0FBECDBFC1
:1008900009942A88398848885F846E847D848C8492
:1008A0009B84AA84B984C884DF80EE80FD800C819B
:1008B0001B81AA81B981CE0FD11D0FB6F894DEBF7E
:0C08C0000FBECDBFED010895F894FFCFEE
:1008CC00616E790A0D000A0D6269743A2025640A7A
:1008DC000D00000000020000000068000000000095
:00000001FF
