:100000000C9434000C9451000C9451000C94510049
:100010000C9451000C9451000C9451000C9451001C
:100020000C9451000C9451000C9451000C9451000C
:100030000C9451000C9451000C9451000C945100FC
:100040000C9451000C9451000C948D010C945100AF
:100050000C9451000C9451000C9451000C945100DC
:100060000C94EA000C94510011241FBECFEFD8E08D
:10007000DEBFCDBF11E0A0E0B1E0ECE2F6E002C0EF
:1000800005900D92A831B107D9F711E0A8E1B1E0D0
:1000900001C01D92A333B107E1F70E94BE020C9488
:1000A00014030C94000022E024B98CEF85B98FE38F
:1000B0009CE99093870080938600E0E8F0E020833D
:1000C0008AE1809381008081806880838081806262
:1000D0008083089594E6899FC001112469E070E04F
:1000E0000E94ED026053784F7093890060938800FE
:1000F00008958CE284B981E78CBD08958EBD0DB45E
:1001000007FEFDCF8EB508958EBD0DB407FEFDCF61
:100110008EB5089584E88093B8008FEF8093BB007C
:1001200084E08093BC0008958091BC0081700895A4
:100130008091BC0080FDFCCF809100010895FC01FE
:100140008091BC0080FDFCCF60931E018081809374
:100150001A0180FD0DC04E2FABE1B1E0CF01FC01D3
:1001600002C080818D9331968E2F841B8617C8F331
:100170001092180188EF8093000185EA8093BC00FB
:1001800008958091BC0080FDFCCF1092180188EF8B
:100190008093000185EA8093BC000895AC018091B2
:1001A000BC0080FDFCCF8091180180FF0FC020E0D3
:1001B00030E00AC0FA01E20FF31FD901A65EBE4F7C
:1001C0008C9180832F5F3F4F2617A0F380911801F9
:1001D000817008951F920F920FB60F9211242F93E2
:1001E0003F938F939F93EF93FF938091B900883251
:1001F000D1F0893240F48031A1F08831A1F088300B
:1002000009F04DC00EC0803459F1813420F4883398
:1002100009F045C042C08035B9F0883509F03FC0CB
:100220002DC0109219019091190180911E0198170B
:1002300068F5E92FF0E0E65EFE4F80818093BB0019
:100240009F5F9093190118C0809119019091BB0094
:10025000E82FF0E0E65EFE4F90838F5F80931901F8
:100260002091190130E080911E0190E0019728173C
:10027000390714F485EC18C085E816C08091BB00DE
:10028000E0911901F0E0E65EFE4F80838091180155
:1002900081608093180184E907C085EA05C08091D8
:1002A000B9008093000184E08093BC00FF91EF913E
:1002B0009F918F913F912F910F900FBE0F901F90A4
:1002C000189581E091E00895E0ECF0E09583848357
:1002D000108288E9818380EC818386E0828388EDC7
:1002E00081830895982F8091C00085FFFCCFE0ECBA
:1002F000F0E0968308958091C00087FFFCCF809145
:10030000C6000895982F8091C00085FFFCCFE0ECD7
:10031000F0E0968380E090E008951F920F920FB670
:100320000F9211240F900FBE0F901F90189580917F
:100330001F01089580912001089580912101089561
:100340008091220108950F931F930E9443028823F6
:1003500011F097E01BC00E946502182F80931F01C7
:100360000E946502082F809320010E9465028093FD
:100370002101100F180F0E946502082F809322019F
:100380000E94650290E0100F181391E0892F1F91D1
:100390000F910895CF92DF92EF92FF920F931F93E8
:1003A000CF93DF936C01EB012FEF3FEF40E050E084
:1003B00060E070E0B1E0EB2EB0EAFB2E012D112DD4
:1003C0001EC0F601E60FF71F808190E0A0E0B0E0CC
:1003D000282739274A275B27E8E0F0E0C901817028
:1003E00090705695479537952795892B21F02E25A6
:1003F0003F2540275127319789F76F5F7F4F6C1753
:100400007D07FCF2C901DF91CF911F910F91FF9001
:10041000EF90DF90CF900895813009F082E08093D3
:100420001001109211016093120110921301409378
:1004300014018FE091E066E070E00E94CA019093A1
:100440001501809316010895CF93DF93C3E2D1E0A5
:100450000E947B01899381E0C133D807C9F7DF91FE
:10046000CF910895CF93DF93C0E0D0E0FE01E15F2C
:10047000FE4F80810E9472012196C830D105B1F7EC
:10048000DF91CF910895389A409884EB90E020E96D
:1004900031E0F9013197F1F70197D9F73898409A8F
:1004A00085ED8A95F1F7309B02C081E0089520E444
:1004B00031E0C9010197F1F7309902C082E0089557
:1004C000C9010197F1F780E0089540E027E030E0AE
:1004D00050EA61E070E0309BFECF852F8A95F1F7FE
:1004E000309B08C0CB01022E02C0880F991F0A94CE
:1004F000E2F7482B3099FECF215030408FEF2F3F4D
:10050000380749F7842F0895389A409A8CE49DE182
:1005100020E931E0F9013197F1F70197D9F73898DF
:10052000409A0895389A40989AE09A95F1F7811187
:10053000409A80EE91E00197F1F73898409A08953B
:10054000FF920F931F93CF93DF93F82EC0E0D0E07C
:1005500001E010E0C8010C2E02C0880F991F0A9418
:10056000E2F78F210E9492022196C830D10591F7BF
:10057000DF91CF911F910F91FF900895CF93DF935B
:1005800087E690E00E9464010E945300C0E9D1E038
:100590000E94A3018823C9F00E949D01482F81E099
:1005A00065E00E940C020E9432020E949701482FCF
:1005B00081E066E00E940C020E94320282E061E06B
:1005C00041E00E940C020E94240288E893E1FE01AF
:1005D0003197F1F70197E1F2FACF97FB092E072641
:1005E0000AD077FD04D00CD006D000201AF4709504
:1005F00061957F4F0895F6F7909581959F4F0895E7
:10060000AA1BBB1B51E107C0AA1FBB1FA617B70738
:1006100010F0A61BB70B881F991F5A95A9F7809554
:0C0620009095BC01CD010895F894FFCF27
:10062C00F80000000200000000820100000000152C
:08063C000100000000000000B5
:00000001FF
